:04000000FEEFFFF020
:10250000000017EC13F00DEC13F003EC13F0F9ECF2
:1025100012F0EFEC12F0E5EC12F0DBEC12F01FEC35
:1025200013F0100ECF18D8A498EF12F09AEF12F013
:10253000AAEF12F0D396000E026EFA0E016EBCECFA
:1025400012F0D386000E026EFA0E016EBCEC12F091
:1025500091EF12F0D396030E026EE80E016EBCEC02
:1025600012F0D386030E026EE80E016EBCEC12F080
:1025700091EF12F0FEEFFFF0FC0E0301196F170E42
:10258000186F1A8FCFEF12F0B1AEC9EF12F0CBEF88
:1025900012F0C4EF12F0B19E0106D8A0020601505D
:1025A0000210D8A4D6EF12F0D8EF12F0C4EF12F058
:1025B00003011A9F1200000EC36E000E0401286F63
:1025C000000E296F000ECB6E1200000EC26E000EC0
:1025D0000401206F000E216F000ECA6E1200000E63
:1025E000C16E000E0401186F0F0E196F0F0EC96E29
:1025F0001200000EC06E000E0401106F000E116F6D
:10260000000EC86E1200000EBF6E000E0401086FAF
:10261000100E096F100EC76E1200000EBE6E000E77
:102620000401006F000E016F000EC66E1200400E16
:102630000001B36F080EB16F660EAD6F1200100E81
:1026400003011A6F700E1B6F1200000181EF12F070
:020000040001F9
:04FFFC0025EF13F0EA
:020000040030CA
:08000000ECFEFFFF9FFFFFFF74
:01000900FFF7
:00000001FF
